{
  "address": "0x5FbDB2315678afecb367f032d93F642f64180aa3",
  "abi": [
    {
      "inputs": [],
      "stateMutability": "nonpayable",
      "type": "constructor"
    },
    {
      "anonymous": false,
      "inputs": [
        {
          "indexed": false,
          "internalType": "address",
          "name": "sender",
          "type": "address"
        },
        {
          "indexed": false,
          "internalType": "bytes32",
          "name": "key",
          "type": "bytes32"
        }
      ],
      "name": "LogCreateTrust",
      "type": "event"
    },
    {
      "anonymous": false,
      "inputs": [
        {
          "indexed": false,
          "internalType": "address",
          "name": "sender",
          "type": "address"
        },
        {
          "indexed": false,
          "internalType": "bytes32",
          "name": "key",
          "type": "bytes32"
        },
        {
          "indexed": false,
          "internalType": "uint256",
          "name": "etherAmount",
          "type": "uint256"
        }
      ],
      "name": "LogDepositTrust",
      "type": "event"
    },
    {
      "anonymous": false,
      "inputs": [
        {
          "indexed": false,
          "internalType": "address",
          "name": "sender",
          "type": "address"
        },
        {
          "indexed": false,
          "internalType": "bytes32",
          "name": "key",
          "type": "bytes32"
        }
      ],
      "name": "LogRemoveTrust",
      "type": "event"
    },
    {
      "anonymous": false,
      "inputs": [
        {
          "indexed": false,
          "internalType": "address",
          "name": "sender",
          "type": "address"
        },
        {
          "indexed": false,
          "internalType": "bytes32",
          "name": "key",
          "type": "bytes32"
        }
      ],
      "name": "LogUpdateTrust",
      "type": "event"
    },
    {
      "anonymous": false,
      "inputs": [
        {
          "indexed": false,
          "internalType": "address",
          "name": "sender",
          "type": "address"
        },
        {
          "indexed": false,
          "internalType": "bytes32",
          "name": "key",
          "type": "bytes32"
        },
        {
          "indexed": false,
          "internalType": "uint256",
          "name": "etherAmount",
          "type": "uint256"
        }
      ],
      "name": "LogWithdrawTrust",
      "type": "event"
    },
    {
      "inputs": [
        {
          "internalType": "bytes32",
          "name": "key",
          "type": "bytes32"
        },
        {
          "internalType": "address",
          "name": "sender",
          "type": "address"
        }
      ],
      "name": "canWithdraw",
      "outputs": [
        {
          "internalType": "bool",
          "name": "result",
          "type": "bool"
        },
        {
          "internalType": "string",
          "name": "reason",
          "type": "string"
        }
      ],
      "stateMutability": "view",
      "type": "function"
    },
    {
      "inputs": [
        {
          "internalType": "address",
          "name": "beneficiary",
          "type": "address"
        },
        {
          "internalType": "address[]",
          "name": "trustees",
          "type": "address[]"
        },
        {
          "internalType": "string",
          "name": "name",
          "type": "string"
        },
        {
          "internalType": "uint256",
          "name": "maturityDate",
          "type": "uint256"
        },
        {
          "internalType": "enum Trusts.TrustType",
          "name": "trustType",
          "type": "uint8"
        }
      ],
      "name": "createTrust",
      "outputs": [
        {
          "internalType": "bytes32",
          "name": "key",
          "type": "bytes32"
        }
      ],
      "stateMutability": "payable",
      "type": "function"
    },
    {
      "inputs": [
        {
          "internalType": "bytes32",
          "name": "key",
          "type": "bytes32"
        }
      ],
      "name": "deleteTrust",
      "outputs": [],
      "stateMutability": "nonpayable",
      "type": "function"
    },
    {
      "inputs": [
        {
          "internalType": "bytes32",
          "name": "key",
          "type": "bytes32"
        }
      ],
      "name": "depositTrust",
      "outputs": [],
      "stateMutability": "payable",
      "type": "function"
    },
    {
      "inputs": [
        {
          "internalType": "bytes32",
          "name": "_key",
          "type": "bytes32"
        }
      ],
      "name": "getTrust",
      "outputs": [
        {
          "internalType": "bytes32",
          "name": "key",
          "type": "bytes32"
        },
        {
          "internalType": "string",
          "name": "name",
          "type": "string"
        },
        {
          "internalType": "address",
          "name": "grantor",
          "type": "address"
        },
        {
          "internalType": "address[]",
          "name": "trustees",
          "type": "address[]"
        },
        {
          "internalType": "address",
          "name": "beneficiary",
          "type": "address"
        },
        {
          "internalType": "uint256",
          "name": "etherAmount",
          "type": "uint256"
        },
        {
          "internalType": "uint256",
          "name": "createdDate",
          "type": "uint256"
        },
        {
          "internalType": "uint256",
          "name": "maturityDate",
          "type": "uint256"
        },
        {
          "internalType": "enum Trusts.TrustType",
          "name": "trustType",
          "type": "uint8"
        }
      ],
      "stateMutability": "view",
      "type": "function"
    },
    {
      "inputs": [
        {
          "internalType": "uint256",
          "name": "index",
          "type": "uint256"
        }
      ],
      "name": "getTrustAtIndex",
      "outputs": [
        {
          "internalType": "bytes32",
          "name": "key",
          "type": "bytes32"
        }
      ],
      "stateMutability": "view",
      "type": "function"
    },
    {
      "inputs": [],
      "name": "getTrustCount",
      "outputs": [
        {
          "internalType": "uint256",
          "name": "count",
          "type": "uint256"
        }
      ],
      "stateMutability": "view",
      "type": "function"
    },
    {
      "inputs": [
        {
          "internalType": "bytes32",
          "name": "key",
          "type": "bytes32"
        },
        {
          "internalType": "address",
          "name": "beneficiary",
          "type": "address"
        },
        {
          "internalType": "address[]",
          "name": "trustees",
          "type": "address[]"
        },
        {
          "internalType": "string",
          "name": "name",
          "type": "string"
        },
        {
          "internalType": "uint256",
          "name": "maturityDate",
          "type": "uint256"
        }
      ],
      "name": "updateTrust",
      "outputs": [],
      "stateMutability": "nonpayable",
      "type": "function"
    },
    {
      "inputs": [
        {
          "internalType": "address",
          "name": "beneficiary",
          "type": "address"
        },
        {
          "internalType": "address[]",
          "name": "trustees",
          "type": "address[]"
        },
        {
          "internalType": "address",
          "name": "sender",
          "type": "address"
        }
      ],
      "name": "validateAddresses",
      "outputs": [],
      "stateMutability": "pure",
      "type": "function"
    },
    {
      "inputs": [
        {
          "internalType": "bytes32",
          "name": "key",
          "type": "bytes32"
        },
        {
          "internalType": "uint256",
          "name": "etherAmount",
          "type": "uint256"
        }
      ],
      "name": "withdraw",
      "outputs": [],
      "stateMutability": "payable",
      "type": "function"
    }
  ],
  "transactionHash": "0xca5e7448ed416d0de1f9d0dfd60157a7e65a1da3ff1922ad4cbb11a12492f74c",
  "args": [],
  "solcInputHash": "0449f7521f74f09436b8deacf400abd0",
  "bytecode": "0x608060405234801561001057600080fd5b5061386b806100206000396000f3fe6080604052600436106100915760003560e01c8063b6309f5611610059578063b6309f5614610172578063b6a07ee71461019b578063bf29b859146101cb578063c05fdce9146101f4578063e80dfb9a1461023957610091565b8063040cf020146100965780630905fa12146100b25780632106764c146100ce5780632f9088a81461010c578063891a193614610135575b600080fd5b6100b060048036038101906100ab9190612643565b610264565b005b6100cc60048036038101906100c79190612537565b6104e5565b005b3480156100da57600080fd5b506100f560048036038101906100f09190612560565b6105a9565b604051610103929190612afb565b60405180910390f35b34801561011857600080fd5b50610133600480360381019061012e9190612429565b610d0e565b005b34801561014157600080fd5b5061015c6004803603810190610157919061267f565b610f24565b6040516101699190612b2b565b60405180910390f35b34801561017e57600080fd5b5061019960048036038101906101949190612537565b610f7f565b005b6101b560048036038101906101b09190612490565b611432565b6040516101c29190612b2b565b60405180910390f35b3480156101d757600080fd5b506101f260048036038101906101ed919061259c565b611626565b005b34801561020057600080fd5b5061021b60048036038101906102169190612537565b6119ac565b60405161023099989796959493929190612b46565b60405180910390f35b34801561024557600080fd5b5061024e611bd2565b60405161025b9190612e03565b60405180910390f35b610278826000611be390919063ffffffff16565b6102b7576040517f08c379a00000000000000000000000000000000000000000000000000000000081526004016102ae90612ce3565b60405180910390fd5b60006002600084815260200190815260200160002090506000806040518060200160405280600081525090506102ed85336105a9565b80925081935050508161033757806040517f08c379a000000000000000000000000000000000000000000000000000000000815260040161032e9190612be1565b60405180910390fd5b8260040160009054906101000a900473ffffffffffffffffffffffffffffffffffffffff1673ffffffffffffffffffffffffffffffffffffffff163373ffffffffffffffffffffffffffffffffffffffff161480156103995750428360070154115b156103d9576040517f08c379a00000000000000000000000000000000000000000000000000000000081526004016103d090612c83565b60405180910390fd5b8260050154841115610420576040517f08c379a000000000000000000000000000000000000000000000000000000000815260040161041790612ca3565b60405180910390fd5b3373ffffffffffffffffffffffffffffffffffffffff166108fc859081150290604051600060405180830381858888f19350505050158015610466573d6000803e3d6000fd5b508383600501600082825461047b9190612f56565b925050819055507f5ae28b04e258b744ffadc4e526ca76cd9c4647e0450f1a47d9e9e1b0d9ff2a1c3386866040516104b593929190612ac4565b60405180910390a16104de60405180606001604052806040815260200161376a60409139611c64565b5050505050565b6104f9816000611be390919063ffffffff16565b610538576040517f08c379a000000000000000000000000000000000000000000000000000000000815260040161052f90612c23565b60405180910390fd5b6000600260008381526020019081526020016000209050348160050160008282546105639190612f00565b925050819055507f6eb28f0a04b486596652b2118fc11d3db7715c960d01ae45b38fd69df9b7886333833460405161059d93929190612ac4565b60405180910390a15050565b60006060600091506105c5846000611be390919063ffffffff16565b610604576040517f08c379a00000000000000000000000000000000000000000000000000000000081526004016105fb90612ce3565b60405180910390fd5b600060026000868152602001908152602001600020905060006005811115610655577f4e487b7100000000000000000000000000000000000000000000000000000000600052602160045260246000fd5b8160080160009054906101000a900460ff16600581111561069f577f4e487b7100000000000000000000000000000000000000000000000000000000600052602160045260246000fd5b141561081a578060020160009054906101000a900473ffffffffffffffffffffffffffffffffffffffff1673ffffffffffffffffffffffffffffffffffffffff168473ffffffffffffffffffffffffffffffffffffffff16148061075257508060040160009054906101000a900473ffffffffffffffffffffffffffffffffffffffff1673ffffffffffffffffffffffffffffffffffffffff168473ffffffffffffffffffffffffffffffffffffffff16145b806107eb57506107ea84826003018054806020026020016040519081016040528092919081815260200182805480156107e057602002820191906000526020600020905b8160009054906101000a900473ffffffffffffffffffffffffffffffffffffffff1673ffffffffffffffffffffffffffffffffffffffff1681526020019060010190808311610796575b5050505050611cfd565b5b156107f95760019250610815565b6040518060800160405280604d81526020016137aa604d913991505b610d06565b60016005811115610854577f4e487b7100000000000000000000000000000000000000000000000000000000600052602160045260246000fd5b8160080160009054906101000a900460ff16600581111561089e577f4e487b7100000000000000000000000000000000000000000000000000000000600052602160045260246000fd5b148061092b5750600260058111156108df577f4e487b7100000000000000000000000000000000000000000000000000000000600052602160045260246000fd5b8160080160009054906101000a900460ff166005811115610929577f4e487b7100000000000000000000000000000000000000000000000000000000600052602160045260246000fd5b145b806109b757506003600581111561096b577f4e487b7100000000000000000000000000000000000000000000000000000000600052602160045260246000fd5b8160080160009054906101000a900460ff1660058111156109b5577f4e487b7100000000000000000000000000000000000000000000000000000000600052602160045260246000fd5b145b80610a435750600460058111156109f7577f4e487b7100000000000000000000000000000000000000000000000000000000600052602160045260246000fd5b8160080160009054906101000a900460ff166005811115610a41577f4e487b7100000000000000000000000000000000000000000000000000000000600052602160045260246000fd5b145b80610ace5750600580811115610a82577f4e487b7100000000000000000000000000000000000000000000000000000000600052602160045260246000fd5b8160080160009054906101000a900460ff166005811115610acc577f4e487b7100000000000000000000000000000000000000000000000000000000600052602160045260246000fd5b145b15610bee578060040160009054906101000a900473ffffffffffffffffffffffffffffffffffffffff1673ffffffffffffffffffffffffffffffffffffffff168473ffffffffffffffffffffffffffffffffffffffff161480610bbf5750610bbe8482600301805480602002602001604051908101604052809291908181526020018280548015610bb457602002820191906000526020600020905b8160009054906101000a900473ffffffffffffffffffffffffffffffffffffffff1673ffffffffffffffffffffffffffffffffffffffff1681526020019060010190808311610b6a575b5050505050611cfd565b5b15610bcd5760019250610be9565b6040518060800160405280604681526020016137246046913991505b610d05565b8060020160009054906101000a900473ffffffffffffffffffffffffffffffffffffffff1673ffffffffffffffffffffffffffffffffffffffff168473ffffffffffffffffffffffffffffffffffffffff161480610cda5750610cd98482600301805480602002602001604051908101604052809291908181526020018280548015610ccf57602002820191906000526020600020905b8160009054906101000a900473ffffffffffffffffffffffffffffffffffffffff1673ffffffffffffffffffffffffffffffffffffffff1681526020019060010190808311610c85575b5050505050611cfd565b5b15610ce85760019250610d04565b6040518060600160405280603f81526020016137f7603f913991505b5b5b509250929050565b610d188383611cfd565b15610d58576040517f08c379a0000000000000000000000000000000000000000000000000000000008152600401610d4f90612cc3565b60405180910390fd5b610d628183611cfd565b15610da2576040517f08c379a0000000000000000000000000000000000000000000000000000000008152600401610d9990612d23565b60405180910390fd5b8073ffffffffffffffffffffffffffffffffffffffff168373ffffffffffffffffffffffffffffffffffffffff161415610e11576040517f08c379a0000000000000000000000000000000000000000000000000000000008152600401610e0890612d63565b60405180910390fd5b60005b8251811015610f1e57828181518110610e56577f4e487b7100000000000000000000000000000000000000000000000000000000600052603260045260246000fd5b602002602001015173ffffffffffffffffffffffffffffffffffffffff16838281518110610ead577f4e487b7100000000000000000000000000000000000000000000000000000000600052603260045260246000fd5b602002602001015173ffffffffffffffffffffffffffffffffffffffff1614610f0b576040517f08c379a0000000000000000000000000000000000000000000000000000000008152600401610f0290612da3565b60405180910390fd5b8080610f16906130a6565b915050610e14565b50505050565b600080610f316000611dab565b1415610f6357610f586040518060600160405280602781526020016136fd60279139611c64565b6000801b9050610f7a565b610f77826000611dbc90919063ffffffff16565b90505b919050565b610f93816000611be390919063ffffffff16565b610fd2576040517f08c379a0000000000000000000000000000000000000000000000000000000008152600401610fc990612d83565b60405180910390fd5b600060026000838152602001908152602001600020604051806101200160405290816000820154815260200160018201805461100d90613043565b80601f016020809104026020016040519081016040528092919081815260200182805461103990613043565b80156110865780601f1061105b57610100808354040283529160200191611086565b820191906000526020600020905b81548152906001019060200180831161106957829003601f168201915b505050505081526020016002820160009054906101000a900473ffffffffffffffffffffffffffffffffffffffff1673ffffffffffffffffffffffffffffffffffffffff1673ffffffffffffffffffffffffffffffffffffffff1681526020016003820180548060200260200160405190810160405280929190818152602001828054801561116a57602002820191906000526020600020905b8160009054906101000a900473ffffffffffffffffffffffffffffffffffffffff1673ffffffffffffffffffffffffffffffffffffffff1681526020019060010190808311611120575b505050505081526020016004820160009054906101000a900473ffffffffffffffffffffffffffffffffffffffff1673ffffffffffffffffffffffffffffffffffffffff1673ffffffffffffffffffffffffffffffffffffffff1681526020016005820154815260200160068201548152602001600782015481526020016008820160009054906101000a900460ff166005811115611232577f4e487b7100000000000000000000000000000000000000000000000000000000600052602160045260246000fd5b600581111561126a577f4e487b7100000000000000000000000000000000000000000000000000000000600052602160045260246000fd5b81525050905060008160a00151146112b7576040517f08c379a00000000000000000000000000000000000000000000000000000000081526004016112ae90612c03565b60405180910390fd5b806040015173ffffffffffffffffffffffffffffffffffffffff163373ffffffffffffffffffffffffffffffffffffffff1614611329576040517f08c379a000000000000000000000000000000000000000000000000000000000815260040161132090612de3565b60405180910390fd5b61133d826000611e0d90919063ffffffff16565b600260008381526020019081526020016000206000808201600090556001820160006113699190612149565b6002820160006101000a81549073ffffffffffffffffffffffffffffffffffffffff02191690556003820160006113a09190612189565b6004820160006101000a81549073ffffffffffffffffffffffffffffffffffffffff02191690556005820160009055600682016000905560078201600090556008820160006101000a81549060ff021916905550507fe766bc0652d21f92ea757a24078cf3ba4f6171072af865e53ac3e2a015ae55493383604051611426929190612a9b565b60405180910390a15050565b600061143f868633610d0e565b600061144e8585338a42611fb1565b9050611464816000611fed90919063ffffffff16565b60006002600083815260200190815260200160002090508181600001819055508581600101908051906020019061149c9291906121aa565b50878160040160006101000a81548173ffffffffffffffffffffffffffffffffffffffff021916908373ffffffffffffffffffffffffffffffffffffffff160217905550868160030190805190602001906114f8929190612230565b50348160050181905550338160020160006101000a81548173ffffffffffffffffffffffffffffffffffffffff021916908373ffffffffffffffffffffffffffffffffffffffff160217905550428160060181905550848160070181905550838160080160006101000a81548160ff021916908360058111156115a4577f4e487b7100000000000000000000000000000000000000000000000000000000600052602160045260246000fd5b02179055506115ca6040518060800160405280604481526020016136b960449139611c64565b6115d78160000154612087565b7f71836473c7d4e03149f5d37496d84c17e256bd578c523d9bd3746062a815ea0f33826000015460405161160c929190612a9b565b60405180910390a180600001549250505095945050505050565b61163a856000611be390919063ffffffff16565b611679576040517f08c379a000000000000000000000000000000000000000000000000000000000815260040161167090612c23565b60405180910390fd5b60006002600087815260200190815260200160002090508060020160009054906101000a900473ffffffffffffffffffffffffffffffffffffffff1673ffffffffffffffffffffffffffffffffffffffff163373ffffffffffffffffffffffffffffffffffffffff1614611722576040517f08c379a000000000000000000000000000000000000000000000000000000000815260040161171990612d03565b60405180910390fd5b8281600101908051906020019061173a9291906121aa565b50611746858533610d0e565b60006005811115611780577f4e487b7100000000000000000000000000000000000000000000000000000000600052602160045260246000fd5b8160080160009054906101000a900460ff1660058111156117ca577f4e487b7100000000000000000000000000000000000000000000000000000000600052602160045260246000fd5b1415801561183757508473ffffffffffffffffffffffffffffffffffffffff168160040160009054906101000a900473ffffffffffffffffffffffffffffffffffffffff1673ffffffffffffffffffffffffffffffffffffffff16141580611836575081816007015414155b5b15611877576040517f08c379a000000000000000000000000000000000000000000000000000000000815260040161186e90612d43565b60405180910390fd5b600060058111156118b1577f4e487b7100000000000000000000000000000000000000000000000000000000600052602160045260246000fd5b8160080160009054906101000a900460ff1660058111156118fb577f4e487b7100000000000000000000000000000000000000000000000000000000600052602160045260246000fd5b14156119a457848160040160006101000a81548173ffffffffffffffffffffffffffffffffffffffff021916908373ffffffffffffffffffffffffffffffffffffffff1602179055508381600301908051906020019061195c929190612230565b508181600701819055507f66e6839589f26b1bd112792bf0b42f8e9de76efa06fd794c144829319eed48fd33826000015460405161199b929190612a9b565b60405180910390a15b505050505050565b600060606000606060008060008060006119d08a6000611be390919063ffffffff16565b611a0f576040517f08c379a0000000000000000000000000000000000000000000000000000000008152600401611a0690612c43565b60405180910390fd5b6000600260008c815260200190815260200160002090508060000154816001018260020160009054906101000a900473ffffffffffffffffffffffffffffffffffffffff16836003018460040160009054906101000a900473ffffffffffffffffffffffffffffffffffffffff168560050154866006015487600701548860080160009054906101000a900460ff16878054611aaa90613043565b80601f0160208091040260200160405190810160405280929190818152602001828054611ad690613043565b8015611b235780601f10611af857610100808354040283529160200191611b23565b820191906000526020600020905b815481529060010190602001808311611b0657829003601f168201915b5050505050975085805480602002602001604051908101604052809291908181526020018280548015611bab57602002820191906000526020600020905b8160009054906101000a900473ffffffffffffffffffffffffffffffffffffffff1673ffffffffffffffffffffffffffffffffffffffff1681526020019060010190808311611b61575b50505050509550995099509950995099509950995099509950509193959799909294969850565b6000611bde6000611dab565b905090565b60008083600101805490501415611bfd5760009050611c5e565b81836001018460000160008581526020019081526020016000205481548110611c4f577f4e487b7100000000000000000000000000000000000000000000000000000000600052603260045260246000fd5b90600052602060002001541490505b92915050565b611cfa81604051602401611c789190612be1565b6040516020818303038152906040527f41304fac000000000000000000000000000000000000000000000000000000007bffffffffffffffffffffffffffffffffffffffffffffffffffffffff19166020820180517bffffffffffffffffffffffffffffffffffffffffffffffffffffffff8381831617835250505050612120565b50565b600080600090505b8251811015611d9f57828181518110611d47577f4e487b7100000000000000000000000000000000000000000000000000000000600052603260045260246000fd5b602002602001015173ffffffffffffffffffffffffffffffffffffffff168473ffffffffffffffffffffffffffffffffffffffff161415611d8c576001915050611da5565b8080611d97906130a6565b915050611d05565b50600090505b92915050565b600081600101805490509050919050565b6000826001018281548110611dfa577f4e487b7100000000000000000000000000000000000000000000000000000000600052603260045260246000fd5b9060005260206000200154905092915050565b611e178282611be3565b611e56576040517f08c379a0000000000000000000000000000000000000000000000000000000008152600401611e4d90612c63565b60405180910390fd5b60006001611e6384611dab565b611e6d9190612f56565b90506000836000016000848152602001908152602001600020549050818114611f42576000846001018381548110611ece577f4e487b7100000000000000000000000000000000000000000000000000000000600052603260045260246000fd5b90600052602060002001549050818560000160008381526020019081526020016000208190555080856001018381548110611f32577f4e487b7100000000000000000000000000000000000000000000000000000000600052603260045260246000fd5b9060005260206000200181905550505b8360000160008481526020019081526020016000206000905583600101805480611f95577f4e487b7100000000000000000000000000000000000000000000000000000000600052603160045260246000fd5b6001900381819060005260206000200160009055905550505050565b60008585858585604051602001611fcc959493929190612a40565b60405160208183030381529060405280519060200120905095945050505050565b611ff78282611be3565b15612037576040517f08c379a000000000000000000000000000000000000000000000000000000000815260040161202e90612dc3565b60405180910390fd5b816001018054905082600001600083815260200190815260200160002081905550816001018190806001815401808255809150506001900390600052602060002001600090919091909150555050565b61211d8160405160240161209b9190612b2b565b6040516020818303038152906040527f27b7cf85000000000000000000000000000000000000000000000000000000007bffffffffffffffffffffffffffffffffffffffffffffffffffffffff19166020820180517bffffffffffffffffffffffffffffffffffffffffffffffffffffffff8381831617835250505050612120565b50565b60008151905060006a636f6e736f6c652e6c6f679050602083016000808483855afa5050505050565b50805461215590613043565b6000825580601f106121675750612186565b601f01602090049060005260206000209081019061218591906122ba565b5b50565b50805460008255906000526020600020908101906121a791906122ba565b50565b8280546121b690613043565b90600052602060002090601f0160209004810192826121d8576000855561221f565b82601f106121f157805160ff191683800117855561221f565b8280016001018555821561221f579182015b8281111561221e578251825591602001919060010190612203565b5b50905061222c91906122ba565b5090565b8280548282559060005260206000209081019282156122a9579160200282015b828111156122a85782518260006101000a81548173ffffffffffffffffffffffffffffffffffffffff021916908373ffffffffffffffffffffffffffffffffffffffff16021790555091602001919060010190612250565b5b5090506122b691906122ba565b5090565b5b808211156122d35760008160009055506001016122bb565b5090565b60006122ea6122e584612e43565b612e1e565b9050808382526020820190508285602086028201111561230957600080fd5b60005b85811015612339578161231f8882612381565b84526020840193506020830192505060018101905061230c565b5050509392505050565b600061235661235184612e6f565b612e1e565b90508281526020810184848401111561236e57600080fd5b612379848285613001565b509392505050565b60008135905061239081613663565b92915050565b600082601f8301126123a757600080fd5b81356123b78482602086016122d7565b91505092915050565b6000813590506123cf8161367a565b92915050565b6000813590506123e481613691565b92915050565b600082601f8301126123fb57600080fd5b813561240b848260208601612343565b91505092915050565b600081359050612423816136a1565b92915050565b60008060006060848603121561243e57600080fd5b600061244c86828701612381565b935050602084013567ffffffffffffffff81111561246957600080fd5b61247586828701612396565b925050604061248686828701612381565b9150509250925092565b600080600080600060a086880312156124a857600080fd5b60006124b688828901612381565b955050602086013567ffffffffffffffff8111156124d357600080fd5b6124df88828901612396565b945050604086013567ffffffffffffffff8111156124fc57600080fd5b612508888289016123ea565b935050606061251988828901612414565b925050608061252a888289016123d5565b9150509295509295909350565b60006020828403121561254957600080fd5b6000612557848285016123c0565b91505092915050565b6000806040838503121561257357600080fd5b6000612581858286016123c0565b925050602061259285828601612381565b9150509250929050565b600080600080600060a086880312156125b457600080fd5b60006125c2888289016123c0565b95505060206125d388828901612381565b945050604086013567ffffffffffffffff8111156125f057600080fd5b6125fc88828901612396565b935050606086013567ffffffffffffffff81111561261957600080fd5b612625888289016123ea565b925050608061263688828901612414565b9150509295509295909350565b6000806040838503121561265657600080fd5b6000612664858286016123c0565b925050602061267585828601612414565b9150509250929050565b60006020828403121561269157600080fd5b600061269f84828501612414565b91505092915050565b60006126b483836126c0565b60208301905092915050565b6126c981612f8a565b82525050565b6126d881612f8a565b82525050565b6126ef6126ea82612f8a565b6130ef565b82525050565b600061270082612eb0565b61270a8185612ed3565b935061271583612ea0565b8060005b8381101561274657815161272d88826126a8565b975061273883612ec6565b925050600181019050612719565b5085935050505092915050565b61275c81612f9c565b82525050565b61276b81612fa8565b82525050565b61277a81612fef565b82525050565b600061278b82612ebb565b6127958185612ee4565b93506127a5818560208601613010565b6127ae816131d9565b840191505092915050565b60006127c482612ebb565b6127ce8185612ef5565b93506127de818560208601613010565b80840191505092915050565b60006127f7603083612ee4565b9150612802826131f7565b604082019050919050565b600061281a602883612ee4565b915061282582613246565b604082019050919050565b600061283d602583612ee4565b915061284882613295565b604082019050919050565b6000612860602a83612ee4565b915061286b826132e4565b604082019050919050565b6000612883603183612ee4565b915061288e82613333565b604082019050919050565b60006128a6602e83612ee4565b91506128b182613382565b604082019050919050565b60006128c9601f83612ee4565b91506128d4826133d1565b602082019050919050565b60006128ec601483612ee4565b91506128f7826133fa565b602082019050919050565b600061290f602783612ee4565b915061291a82613423565b604082019050919050565b6000612932601b83612ee4565b915061293d82613472565b602082019050919050565b6000612955605083612ee4565b91506129608261349b565b606082019050919050565b6000612978601d83612ee4565b915061298382613510565b602082019050919050565b600061299b602883612ee4565b91506129a682613539565b604082019050919050565b60006129be601783612ee4565b91506129c982613588565b602082019050919050565b60006129e1602a83612ee4565b91506129ec826135b1565b604082019050919050565b6000612a04602783612ee4565b9150612a0f82613600565b604082019050919050565b612a2381612fe5565b82525050565b612a3a612a3582612fe5565b613113565b82525050565b6000612a4c82886127b9565b9150612a588287612a29565b602082019150612a6882866126de565b601482019150612a7882856126de565b601482019150612a888284612a29565b6020820191508190509695505050505050565b6000604082019050612ab060008301856126cf565b612abd6020830184612762565b9392505050565b6000606082019050612ad960008301866126cf565b612ae66020830185612762565b612af36040830184612a1a565b949350505050565b6000604082019050612b106000830185612753565b8181036020830152612b228184612780565b90509392505050565b6000602082019050612b406000830184612762565b92915050565b600061012082019050612b5c600083018c612762565b8181036020830152612b6e818b612780565b9050612b7d604083018a6126cf565b8181036060830152612b8f81896126f5565b9050612b9e60808301886126cf565b612bab60a0830187612a1a565b612bb860c0830186612a1a565b612bc560e0830185612a1a565b612bd3610100830184612771565b9a9950505050505050505050565b60006020820190508181036000830152612bfb8184612780565b905092915050565b60006020820190508181036000830152612c1c816127ea565b9050919050565b60006020820190508181036000830152612c3c8161280d565b9050919050565b60006020820190508181036000830152612c5c81612830565b9050919050565b60006020820190508181036000830152612c7c81612853565b9050919050565b60006020820190508181036000830152612c9c81612876565b9050919050565b60006020820190508181036000830152612cbc81612899565b9050919050565b60006020820190508181036000830152612cdc816128bc565b9050919050565b60006020820190508181036000830152612cfc816128df565b9050919050565b60006020820190508181036000830152612d1c81612902565b9050919050565b60006020820190508181036000830152612d3c81612925565b9050919050565b60006020820190508181036000830152612d5c81612948565b9050919050565b60006020820190508181036000830152612d7c8161296b565b9050919050565b60006020820190508181036000830152612d9c8161298e565b9050919050565b60006020820190508181036000830152612dbc816129b1565b9050919050565b60006020820190508181036000830152612ddc816129d4565b9050919050565b60006020820190508181036000830152612dfc816129f7565b9050919050565b6000602082019050612e186000830184612a1a565b92915050565b6000612e28612e39565b9050612e348282613075565b919050565b6000604051905090565b600067ffffffffffffffff821115612e5e57612e5d6131aa565b5b602082029050602081019050919050565b600067ffffffffffffffff821115612e8a57612e896131aa565b5b612e93826131d9565b9050602081019050919050565b6000819050602082019050919050565b600081519050919050565b600081519050919050565b6000602082019050919050565b600082825260208201905092915050565b600082825260208201905092915050565b600081905092915050565b6000612f0b82612fe5565b9150612f1683612fe5565b9250827fffffffffffffffffffffffffffffffffffffffffffffffffffffffffffffffff03821115612f4b57612f4a61311d565b5b828201905092915050565b6000612f6182612fe5565b9150612f6c83612fe5565b925082821015612f7f57612f7e61311d565b5b828203905092915050565b6000612f9582612fc5565b9050919050565b60008115159050919050565b6000819050919050565b6000819050612fc08261364f565b919050565b600073ffffffffffffffffffffffffffffffffffffffff82169050919050565b6000819050919050565b6000612ffa82612fb2565b9050919050565b82818337600083830152505050565b60005b8381101561302e578082015181840152602081019050613013565b8381111561303d576000848401525b50505050565b6000600282049050600182168061305b57607f821691505b6020821081141561306f5761306e61317b565b5b50919050565b61307e826131d9565b810181811067ffffffffffffffff8211171561309d5761309c6131aa565b5b80604052505050565b60006130b182612fe5565b91507fffffffffffffffffffffffffffffffffffffffffffffffffffffffffffffffff8214156130e4576130e361311d565b5b600182019050919050565b60006130fa82613101565b9050919050565b600061310c826131ea565b9050919050565b6000819050919050565b7f4e487b7100000000000000000000000000000000000000000000000000000000600052601160045260246000fd5b7f4e487b7100000000000000000000000000000000000000000000000000000000600052602160045260246000fd5b7f4e487b7100000000000000000000000000000000000000000000000000000000600052602260045260246000fd5b7f4e487b7100000000000000000000000000000000000000000000000000000000600052604160045260246000fd5b6000601f19601f8301169050919050565b60008160601b9050919050565b7f43616e27742064656c657465206120747275737420776974682065746865722c60008201527f2077697468647261772066697273742e00000000000000000000000000000000602082015250565b7f43616e2774207570646174652061207472757374207468617420646f65736e2760008201527f742065786973742e000000000000000000000000000000000000000000000000602082015250565b7f43616e2774206765742061207472757374207468617420646f65736e2774206560008201527f786973742e000000000000000000000000000000000000000000000000000000602082015250565b7f427974657333325365743a206b657920646f6573206e6f74206578697374206960008201527f6e20746865207365742e00000000000000000000000000000000000000000000602082015250565b7f62656e65666963696172792063616e206f6e6c7920776974686472617720414660008201527f544552206d617475726974792064617465000000000000000000000000000000602082015250565b7f43616e2774207769746864726177206d6f7265206574686572207468616e206560008201527f786973747320696e207472757374000000000000000000000000000000000000602082015250565b7f42656e65666963696172792063616e6e6f742062652061207472757374656500600082015250565b7f547275737420646f65736e27742065786973742e000000000000000000000000600082015250565b7f4f6e6c7920746865206772616e746f722063616e20757064617465207468697360008201527f2074727573742e00000000000000000000000000000000000000000000000000602082015250565b7f4772616e746f722063616e6e6f74206265206120747275737465650000000000600082015250565b7f42656e65666963696172792c20547275737465657320616e64204d617475726960008201527f747920646174652063616e206f6e6c79206265207570646174656420696e206160208201527f205245564f4341424c4520747275737400000000000000000000000000000000604082015250565b7f42656e65666963696172792063616e6e6f74206265206772616e746f72000000600082015250565b7f43616e27742064656c6574652061207472757374207468617420646f65736e2760008201527f742065786973742e000000000000000000000000000000000000000000000000602082015250565b7f496e76616c696420547275737465652061646472657373000000000000000000600082015250565b7f427974657333325365743a206b657920616c726561647920657869737473206960008201527f6e20746865207365742e00000000000000000000000000000000000000000000602082015250565b7f4f6e6c7920746865206772616e746f722063616e2064656c657465207468697360008201527f2074727573742e00000000000000000000000000000000000000000000000000602082015250565b600681106136605761365f61314c565b5b50565b61366c81612f8a565b811461367757600080fd5b50565b61368381612fa8565b811461368e57600080fd5b50565b6006811061369e57600080fd5b50565b6136aa81612fe5565b81146136b557600080fd5b5056fe54727573742e736f6c3a3a63726561746554727573742829202d206372656174655472757374204576656e7420456d697474696e67204e4f572e2e2e2e3a204b45593a2067657454727573744174496e6465782829202d2074727573745365742e636f756e74206973203049525245564f4341424c452074797065207472757374206d61792062652077697468647261776e206f6e6c792062792062656e6566696369617279206f72207472757374656554727573742e736f6c202d20776974686472617728292c206b65793a20247b6b65797d206574686572416d6f756e743a20247b5f6574686572416d6f756e747d5245564f4341424c452074797065207472757374206d61792062652077697468647261776e206f6e6c79206279206772616e746f722c2062656e6566696369617279206f72207472757374656544454641554c5420747275737420747970653a206d61792062652077697468647261776e206f6e6c79206279206772616e746f72206f722074727573746565a26469706673582212206a2760b3568038e0834cef4a49e6a8b3b05a6350aa0d926bf467eb6a3c8742dc64736f6c63430008040033",
  "devdoc": {
    "kind": "dev",
    "methods": {
      "canWithdraw(bytes32,address)": {
        "params": {
          "key": "Trust to check",
          "sender": "Who is withdrawing"
        }
      },
      "createTrust(address,address[],string,uint256,uint8)": {
        "params": {
          "beneficiary": "Who is this for",
          "maturityDate": "When this trust matures (is accessible)",
          "name": "Name of trust",
          "trustType": "Type of trust",
          "trustees": "Trustee to manage trust"
        }
      },
      "deleteTrust(bytes32)": {
        "params": {
          "key": "Trust to delete"
        }
      },
      "depositTrust(bytes32)": {
        "params": {
          "key": "Trust to deposit to"
        }
      },
      "getTrust(bytes32)": {
        "params": {
          "_key": "Trust to return"
        }
      },
      "getTrustAtIndex(uint256)": {
        "params": {
          "index": "trust index"
        }
      },
      "getTrustCount()": {
        "params": {
          "count": "of trusts"
        }
      },
      "updateTrust(bytes32,address,address[],string,uint256)": {
        "params": {
          "beneficiary": "New Beneficiary",
          "key": "Trust to update",
          "maturityDate": "New Date",
          "name": "New name",
          "trustees": "New Trustees (array)"
        }
      },
      "validateAddresses(address,address[],address)": {
        "params": {
          "beneficiary": "Beneficiary string",
          "sender": "msg.Sender",
          "trustees": "Trustees"
        }
      },
      "withdraw(bytes32,uint256)": {
        "params": {
          "etherAmount": "Amount to withdraw",
          "key": "Trust to withdraw from"
        }
      }
    },
    "version": 1
  },
  "userdoc": {
    "kind": "user",
    "methods": {
      "canWithdraw(bytes32,address)": {
        "notice": "Returns whether a withdrawal can be made "
      },
      "constructor": {
        "notice": "Constructor function"
      },
      "createTrust(address,address[],string,uint256,uint8)": {
        "notice": "Create a new trust"
      },
      "deleteTrust(bytes32)": {
        "notice": "Delete a trust - must have 0 balance"
      },
      "depositTrust(bytes32)": {
        "notice": "Deposit some ETH to this account"
      },
      "getTrust(bytes32)": {
        "notice": "Get a trust details"
      },
      "getTrustAtIndex(uint256)": {
        "notice": "Read the trust details at a given index (used to iterate)"
      },
      "getTrustCount()": {
        "notice": "Get the number of trusts"
      },
      "updateTrust(bytes32,address,address[],string,uint256)": {
        "notice": "Update some of the settings of the trust (not all)"
      },
      "validateAddresses(address,address[],address)": {
        "notice": "Validate address fields for a trust"
      },
      "withdraw(bytes32,uint256)": {
        "notice": "Withdraw ETH"
      }
    },
    "version": 1
  },
  "storageLayout": {
    "storage": [
      {
        "astId": 8259,
        "contract": "src/contracts/Trusts.sol:Trusts",
        "label": "trustSet",
        "offset": 0,
        "slot": "0",
        "type": "t_struct(Set)8073_storage"
      },
      {
        "astId": 8297,
        "contract": "src/contracts/Trusts.sol:Trusts",
        "label": "trusts",
        "offset": 0,
        "slot": "2",
        "type": "t_mapping(t_bytes32,t_struct(Trust)8292_storage)"
      }
    ],
    "types": {
      "t_address": {
        "encoding": "inplace",
        "label": "address",
        "numberOfBytes": "20"
      },
      "t_array(t_address)dyn_storage": {
        "base": "t_address",
        "encoding": "dynamic_array",
        "label": "address[]",
        "numberOfBytes": "32"
      },
      "t_array(t_bytes32)dyn_storage": {
        "base": "t_bytes32",
        "encoding": "dynamic_array",
        "label": "bytes32[]",
        "numberOfBytes": "32"
      },
      "t_bytes32": {
        "encoding": "inplace",
        "label": "bytes32",
        "numberOfBytes": "32"
      },
      "t_enum(TrustType)8266": {
        "encoding": "inplace",
        "label": "enum Trusts.TrustType",
        "numberOfBytes": "1"
      },
      "t_mapping(t_bytes32,t_struct(Trust)8292_storage)": {
        "encoding": "mapping",
        "key": "t_bytes32",
        "label": "mapping(bytes32 => struct Trusts.Trust)",
        "numberOfBytes": "32",
        "value": "t_struct(Trust)8292_storage"
      },
      "t_mapping(t_bytes32,t_uint256)": {
        "encoding": "mapping",
        "key": "t_bytes32",
        "label": "mapping(bytes32 => uint256)",
        "numberOfBytes": "32",
        "value": "t_uint256"
      },
      "t_string_storage": {
        "encoding": "bytes",
        "label": "string",
        "numberOfBytes": "32"
      },
      "t_struct(Set)8073_storage": {
        "encoding": "inplace",
        "label": "struct Bytes32Set.Set",
        "members": [
          {
            "astId": 8069,
            "contract": "src/contracts/Trusts.sol:Trusts",
            "label": "keyPointers",
            "offset": 0,
            "slot": "0",
            "type": "t_mapping(t_bytes32,t_uint256)"
          },
          {
            "astId": 8072,
            "contract": "src/contracts/Trusts.sol:Trusts",
            "label": "keyList",
            "offset": 0,
            "slot": "1",
            "type": "t_array(t_bytes32)dyn_storage"
          }
        ],
        "numberOfBytes": "64"
      },
      "t_struct(Trust)8292_storage": {
        "encoding": "inplace",
        "label": "struct Trusts.Trust",
        "members": [
          {
            "astId": 8273,
            "contract": "src/contracts/Trusts.sol:Trusts",
            "label": "key",
            "offset": 0,
            "slot": "0",
            "type": "t_bytes32"
          },
          {
            "astId": 8275,
            "contract": "src/contracts/Trusts.sol:Trusts",
            "label": "name",
            "offset": 0,
            "slot": "1",
            "type": "t_string_storage"
          },
          {
            "astId": 8277,
            "contract": "src/contracts/Trusts.sol:Trusts",
            "label": "grantor",
            "offset": 0,
            "slot": "2",
            "type": "t_address"
          },
          {
            "astId": 8280,
            "contract": "src/contracts/Trusts.sol:Trusts",
            "label": "trustees",
            "offset": 0,
            "slot": "3",
            "type": "t_array(t_address)dyn_storage"
          },
          {
            "astId": 8282,
            "contract": "src/contracts/Trusts.sol:Trusts",
            "label": "beneficiary",
            "offset": 0,
            "slot": "4",
            "type": "t_address"
          },
          {
            "astId": 8284,
            "contract": "src/contracts/Trusts.sol:Trusts",
            "label": "etherAmount",
            "offset": 0,
            "slot": "5",
            "type": "t_uint256"
          },
          {
            "astId": 8286,
            "contract": "src/contracts/Trusts.sol:Trusts",
            "label": "createdDate",
            "offset": 0,
            "slot": "6",
            "type": "t_uint256"
          },
          {
            "astId": 8288,
            "contract": "src/contracts/Trusts.sol:Trusts",
            "label": "maturityDate",
            "offset": 0,
            "slot": "7",
            "type": "t_uint256"
          },
          {
            "astId": 8291,
            "contract": "src/contracts/Trusts.sol:Trusts",
            "label": "trustType",
            "offset": 0,
            "slot": "8",
            "type": "t_enum(TrustType)8266"
          }
        ],
        "numberOfBytes": "288"
      },
      "t_uint256": {
        "encoding": "inplace",
        "label": "uint256",
        "numberOfBytes": "32"
      }
    }
  }
}