{
  "address": "0x5FbDB2315678afecb367f032d93F642f64180aa3",
  "abi": [
    {
      "inputs": [],
      "stateMutability": "nonpayable",
      "type": "constructor"
    },
    {
      "anonymous": false,
      "inputs": [
        {
          "indexed": false,
          "internalType": "address",
          "name": "sender",
          "type": "address"
        },
        {
          "indexed": false,
          "internalType": "bytes32",
          "name": "key",
          "type": "bytes32"
        },
        {
          "indexed": false,
          "internalType": "string",
          "name": "name",
          "type": "string"
        }
      ],
      "name": "LogCreateTrust",
      "type": "event"
    },
    {
      "anonymous": false,
      "inputs": [
        {
          "indexed": false,
          "internalType": "address",
          "name": "sender",
          "type": "address"
        },
        {
          "indexed": false,
          "internalType": "bytes32",
          "name": "key",
          "type": "bytes32"
        },
        {
          "indexed": false,
          "internalType": "uint256",
          "name": "etherAmount",
          "type": "uint256"
        }
      ],
      "name": "LogDepositTrust",
      "type": "event"
    },
    {
      "anonymous": false,
      "inputs": [
        {
          "indexed": false,
          "internalType": "address",
          "name": "sender",
          "type": "address"
        },
        {
          "indexed": false,
          "internalType": "bytes32",
          "name": "key",
          "type": "bytes32"
        }
      ],
      "name": "LogRemoveTrust",
      "type": "event"
    },
    {
      "anonymous": false,
      "inputs": [
        {
          "indexed": false,
          "internalType": "address",
          "name": "sender",
          "type": "address"
        },
        {
          "indexed": false,
          "internalType": "bytes32",
          "name": "key",
          "type": "bytes32"
        },
        {
          "indexed": false,
          "internalType": "string",
          "name": "name",
          "type": "string"
        }
      ],
      "name": "LogUpdateTrust",
      "type": "event"
    },
    {
      "inputs": [
        {
          "internalType": "address",
          "name": "_beneficiary",
          "type": "address"
        },
        {
          "internalType": "address",
          "name": "_trustee",
          "type": "address"
        },
        {
          "internalType": "string",
          "name": "_name",
          "type": "string"
        },
        {
          "internalType": "uint256",
          "name": "_maturityDate",
          "type": "uint256"
        }
      ],
      "name": "createTrust",
      "outputs": [
        {
          "internalType": "bytes32",
          "name": "key",
          "type": "bytes32"
        }
      ],
      "stateMutability": "payable",
      "type": "function"
    },
    {
      "inputs": [
        {
          "internalType": "bytes32",
          "name": "key",
          "type": "bytes32"
        }
      ],
      "name": "deleteTrust",
      "outputs": [],
      "stateMutability": "nonpayable",
      "type": "function"
    },
    {
      "inputs": [
        {
          "internalType": "bytes32",
          "name": "key",
          "type": "bytes32"
        }
      ],
      "name": "depositTrust",
      "outputs": [],
      "stateMutability": "payable",
      "type": "function"
    },
    {
      "inputs": [
        {
          "internalType": "bytes32",
          "name": "_key",
          "type": "bytes32"
        }
      ],
      "name": "getTrust",
      "outputs": [
        {
          "internalType": "bytes32",
          "name": "key",
          "type": "bytes32"
        },
        {
          "internalType": "string",
          "name": "name",
          "type": "string"
        },
        {
          "internalType": "address",
          "name": "beneficiary",
          "type": "address"
        },
        {
          "internalType": "address",
          "name": "trustee",
          "type": "address"
        },
        {
          "internalType": "uint256",
          "name": "etherAmount",
          "type": "uint256"
        },
        {
          "internalType": "address",
          "name": "creator",
          "type": "address"
        },
        {
          "internalType": "uint256",
          "name": "createdDate",
          "type": "uint256"
        },
        {
          "internalType": "uint256",
          "name": "maturityDate",
          "type": "uint256"
        }
      ],
      "stateMutability": "view",
      "type": "function"
    },
    {
      "inputs": [
        {
          "internalType": "uint256",
          "name": "index",
          "type": "uint256"
        }
      ],
      "name": "getTrustAtIndex",
      "outputs": [
        {
          "internalType": "bytes32",
          "name": "key",
          "type": "bytes32"
        }
      ],
      "stateMutability": "view",
      "type": "function"
    },
    {
      "inputs": [],
      "name": "getTrustCount",
      "outputs": [
        {
          "internalType": "uint256",
          "name": "count",
          "type": "uint256"
        }
      ],
      "stateMutability": "view",
      "type": "function"
    },
    {
      "inputs": [
        {
          "internalType": "bytes32",
          "name": "key",
          "type": "bytes32"
        }
      ],
      "name": "getTrustName",
      "outputs": [
        {
          "internalType": "string",
          "name": "name",
          "type": "string"
        }
      ],
      "stateMutability": "view",
      "type": "function"
    },
    {
      "inputs": [
        {
          "internalType": "bytes32",
          "name": "key",
          "type": "bytes32"
        },
        {
          "internalType": "address",
          "name": "_beneficiary",
          "type": "address"
        },
        {
          "internalType": "address",
          "name": "_trustee",
          "type": "address"
        },
        {
          "internalType": "string",
          "name": "_name",
          "type": "string"
        },
        {
          "internalType": "uint256",
          "name": "_maturityDate",
          "type": "uint256"
        }
      ],
      "name": "updateTrust",
      "outputs": [],
      "stateMutability": "nonpayable",
      "type": "function"
    },
    {
      "inputs": [
        {
          "internalType": "bytes32",
          "name": "key",
          "type": "bytes32"
        },
        {
          "internalType": "uint256",
          "name": "_etherAmount",
          "type": "uint256"
        }
      ],
      "name": "withdraw",
      "outputs": [],
      "stateMutability": "payable",
      "type": "function"
    },
    {
      "inputs": [
        {
          "internalType": "bytes32",
          "name": "key",
          "type": "bytes32"
        }
      ],
      "name": "withdrawAll",
      "outputs": [],
      "stateMutability": "payable",
      "type": "function"
    }
  ],
  "transactionHash": "0x017ba7fe64717e33ea85803ef812e23c5e0e6ec80f94b4e54d09faed7e2cffbd",
  "args": [],
  "solcInputHash": "ef308d762f5a2de0a7ec90ebd1d1fb57",
  "bytecode": "0x608060405234801561001057600080fd5b507f3078310000000000000000000000000000000000000000000000000000000000600281905550612726806100476000396000f3fe6080604052600436106100915760003560e01c8063b6309f5611610059578063b6309f5614610171578063bd4068911461019a578063c05fdce9146101ca578063c42c6e141461020e578063e80dfb9a1461022a57610091565b8063040cf020146100965780630905fa12146100b257806343782b98146100ce5780637db2fc311461010b578063891a193614610134575b600080fd5b6100b060048036038101906100ab91906119bd565b610255565b005b6100cc60048036038101906100c79190611905565b610552565b005b3480156100da57600080fd5b506100f560048036038101906100f09190611905565b610616565b6040516101029190611e0d565b60405180910390f35b34801561011757600080fd5b50610132600480360381019061012d919061192e565b610717565b005b34801561014057600080fd5b5061015b600480360381019061015691906119f9565b610905565b6040516101689190611d6d565b60405180910390f35b34801561017d57600080fd5b5061019860048036038101906101939190611905565b61097d565b005b6101b460048036038101906101af919061188a565b610d74565b6040516101c19190611d6d565b60405180910390f35b3480156101d657600080fd5b506101f160048036038101906101ec9190611905565b610f22565b604051610205989796959493929190611d88565b60405180910390f35b61022860048036038101906102239190611905565b6110c8565b005b34801561023657600080fd5b5061023f61130c565b60405161024c9190611fcf565b60405180910390f35b61026982600061131d90919063ffffffff16565b6102a8576040517f08c379a000000000000000000000000000000000000000000000000000000000815260040161029f90611f2f565b60405180910390fd5b60006003600084815260200190815260200160002090508060040160009054906101000a900473ffffffffffffffffffffffffffffffffffffffff1673ffffffffffffffffffffffffffffffffffffffff163373ffffffffffffffffffffffffffffffffffffffff16148061036c57508060020160009054906101000a900473ffffffffffffffffffffffffffffffffffffffff1673ffffffffffffffffffffffffffffffffffffffff163373ffffffffffffffffffffffffffffffffffffffff16145b806103c657508060030160009054906101000a900473ffffffffffffffffffffffffffffffffffffffff1673ffffffffffffffffffffffffffffffffffffffff163373ffffffffffffffffffffffffffffffffffffffff16145b610405576040517f08c379a00000000000000000000000000000000000000000000000000000000081526004016103fc90611f0f565b60405180910390fd5b8060040160009054906101000a900473ffffffffffffffffffffffffffffffffffffffff1673ffffffffffffffffffffffffffffffffffffffff163373ffffffffffffffffffffffffffffffffffffffff16146104a45742816007015411156104a3576040517f08c379a000000000000000000000000000000000000000000000000000000000815260040161049a90611faf565b60405180910390fd5b5b80600501548211156104eb576040517f08c379a00000000000000000000000000000000000000000000000000000000081526004016104e290611ecf565b60405180910390fd5b3373ffffffffffffffffffffffffffffffffffffffff166108fc839081150290604051600060405180830381858888f19350505050158015610531573d6000803e3d6000fd5b508181600501600082825461054691906120c7565b92505081905550505050565b61056681600061131d90919063ffffffff16565b6105a5576040517f08c379a000000000000000000000000000000000000000000000000000000000815260040161059c90611e4f565b60405180910390fd5b6000600360008381526020019081526020016000209050348160050160008282546105d09190612071565b925050819055507f6eb28f0a04b486596652b2118fc11d3db7715c960d01ae45b38fd69df9b7886333833460405161060a93929190611d36565b60405180910390a15050565b606061062c82600061131d90919063ffffffff16565b61066b576040517f08c379a000000000000000000000000000000000000000000000000000000000815260040161066290611f4f565b60405180910390fd5b600060036000848152602001908152602001600020905080600101805461069190612183565b80601f01602080910402602001604051908101604052809291908181526020018280546106bd90612183565b801561070a5780601f106106df5761010080835404028352916020019161070a565b820191906000526020600020905b8154815290600101906020018083116106ed57829003601f168201915b5050505050915050919050565b61072b85600061131d90919063ffffffff16565b61076a576040517f08c379a000000000000000000000000000000000000000000000000000000000815260040161076190611e4f565b60405180910390fd5b60006003600087815260200190815260200160002090508060040160009054906101000a900473ffffffffffffffffffffffffffffffffffffffff1673ffffffffffffffffffffffffffffffffffffffff163373ffffffffffffffffffffffffffffffffffffffff1614610813576040517f08c379a000000000000000000000000000000000000000000000000000000000815260040161080a90611eef565b60405180910390fd5b8281600101908051906020019061082b929190611700565b50848160020160006101000a81548173ffffffffffffffffffffffffffffffffffffffff021916908373ffffffffffffffffffffffffffffffffffffffff160217905550838160030160006101000a81548173ffffffffffffffffffffffffffffffffffffffff021916908373ffffffffffffffffffffffffffffffffffffffff1602179055508181600701819055507f25a57a8fa1c5147389ddeebada126a8b82479b2ff157205a4c47d91ae3b5f1d2338260000154836001016040516108f593929190611cf8565b60405180910390a1505050505050565b600080610912600061139e565b1415610961576109396040518060600160405280602781526020016126ca602791396113af565b7f30783000000000000000000000000000000000000000000000000000000000009050610978565b61097582600061144890919063ffffffff16565b90505b919050565b61099181600061131d90919063ffffffff16565b6109d0576040517f08c379a00000000000000000000000000000000000000000000000000000000081526004016109c790611f6f565b60405180910390fd5b6000600360008381526020019081526020016000206040518061010001604052908160008201548152602001600182018054610a0b90612183565b80601f0160208091040260200160405190810160405280929190818152602001828054610a3790612183565b8015610a845780601f10610a5957610100808354040283529160200191610a84565b820191906000526020600020905b815481529060010190602001808311610a6757829003601f168201915b505050505081526020016002820160009054906101000a900473ffffffffffffffffffffffffffffffffffffffff1673ffffffffffffffffffffffffffffffffffffffff1673ffffffffffffffffffffffffffffffffffffffff1681526020016003820160009054906101000a900473ffffffffffffffffffffffffffffffffffffffff1673ffffffffffffffffffffffffffffffffffffffff1673ffffffffffffffffffffffffffffffffffffffff1681526020016004820160009054906101000a900473ffffffffffffffffffffffffffffffffffffffff1673ffffffffffffffffffffffffffffffffffffffff1673ffffffffffffffffffffffffffffffffffffffff1681526020016005820154815260200160068201548152602001600782015481525050905060008160a0015114610bf6576040517f08c379a0000000000000000000000000000000000000000000000000000000008152600401610bed90611e2f565b60405180910390fd5b806080015173ffffffffffffffffffffffffffffffffffffffff163373ffffffffffffffffffffffffffffffffffffffff1614610c68576040517f08c379a0000000000000000000000000000000000000000000000000000000008152600401610c5f90611eaf565b60405180910390fd5b610c7c82600061149990919063ffffffff16565b60036000838152602001908152602001600020600080820160009055600182016000610ca89190611786565b6002820160006101000a81549073ffffffffffffffffffffffffffffffffffffffff02191690556003820160006101000a81549073ffffffffffffffffffffffffffffffffffffffff02191690556004820160006101000a81549073ffffffffffffffffffffffffffffffffffffffff021916905560058201600090556006820160009055600782016000905550507fe766bc0652d21f92ea757a24078cf3ba4f6171072af865e53ac3e2a015ae55493383604051610d68929190611ccf565b60405180910390a15050565b6000610d8c600254600061163d90919063ffffffff16565b60006003600060025481526020019081526020016000209050600254816000018190555083816001019080519060200190610dc8929190611700565b50858160020160006101000a81548173ffffffffffffffffffffffffffffffffffffffff021916908373ffffffffffffffffffffffffffffffffffffffff160217905550848160030160006101000a81548173ffffffffffffffffffffffffffffffffffffffff021916908373ffffffffffffffffffffffffffffffffffffffff160217905550348160050181905550338160040160006101000a81548173ffffffffffffffffffffffffffffffffffffffff021916908373ffffffffffffffffffffffffffffffffffffffff160217905550428160060181905550828160070181905550600060025460001c90508080610ec2906121e6565b9150508060001b6002819055507f8a9da6227e575405dc95a03cbc4aa246aa87bf4c849903103f43c9f30cc58e9e33836000015484600101604051610f0993929190611cf8565b60405180910390a1816000015492505050949350505050565b60006060600080600080600080610f4389600061131d90919063ffffffff16565b610f82576040517f08c379a0000000000000000000000000000000000000000000000000000000008152600401610f7990611e6f565b60405180910390fd5b6000600360008b815260200190815260200160002090508060000154816001018260020160009054906101000a900473ffffffffffffffffffffffffffffffffffffffff168360030160009054906101000a900473ffffffffffffffffffffffffffffffffffffffff1684600501548560040160009054906101000a900473ffffffffffffffffffffffffffffffffffffffff168660060154876007015486805461102c90612183565b80601f016020809104026020016040519081016040528092919081815260200182805461105890612183565b80156110a55780601f1061107a576101008083540402835291602001916110a5565b820191906000526020600020905b81548152906001019060200180831161108857829003601f168201915b505050505096509850985098509850985098509850985050919395975091939597565b6110dc81600061131d90919063ffffffff16565b61111b576040517f08c379a000000000000000000000000000000000000000000000000000000000815260040161111290611f2f565b60405180910390fd5b600060036000838152602001908152602001600020604051806101000160405290816000820154815260200160018201805461115690612183565b80601f016020809104026020016040519081016040528092919081815260200182805461118290612183565b80156111cf5780601f106111a4576101008083540402835291602001916111cf565b820191906000526020600020905b8154815290600101906020018083116111b257829003601f168201915b505050505081526020016002820160009054906101000a900473ffffffffffffffffffffffffffffffffffffffff1673ffffffffffffffffffffffffffffffffffffffff1673ffffffffffffffffffffffffffffffffffffffff1681526020016003820160009054906101000a900473ffffffffffffffffffffffffffffffffffffffff1673ffffffffffffffffffffffffffffffffffffffff1673ffffffffffffffffffffffffffffffffffffffff1681526020016004820160009054906101000a900473ffffffffffffffffffffffffffffffffffffffff1673ffffffffffffffffffffffffffffffffffffffff1673ffffffffffffffffffffffffffffffffffffffff16815260200160058201548152602001600682015481526020016007820154815250509050611308828260a00151610255565b5050565b6000611318600061139e565b905090565b600080836001018054905014156113375760009050611398565b81836001018460000160008581526020019081526020016000205481548110611389577f4e487b7100000000000000000000000000000000000000000000000000000000600052603260045260246000fd5b90600052602060002001541490505b92915050565b600081600101805490509050919050565b611445816040516024016113c39190611e0d565b6040516020818303038152906040527f41304fac000000000000000000000000000000000000000000000000000000007bffffffffffffffffffffffffffffffffffffffffffffffffffffffff19166020820180517bffffffffffffffffffffffffffffffffffffffffffffffffffffffff83818316178352505050506116d7565b50565b6000826001018281548110611486577f4e487b7100000000000000000000000000000000000000000000000000000000600052603260045260246000fd5b9060005260206000200154905092915050565b6114a3828261131d565b6114e2576040517f08c379a00000000000000000000000000000000000000000000000000000000081526004016114d990611e8f565b60405180910390fd5b600060016114ef8461139e565b6114f991906120c7565b905060008360000160008481526020019081526020016000205490508181146115ce57600084600101838154811061155a577f4e487b7100000000000000000000000000000000000000000000000000000000600052603260045260246000fd5b906000526020600020015490508185600001600083815260200190815260200160002081905550808560010183815481106115be577f4e487b7100000000000000000000000000000000000000000000000000000000600052603260045260246000fd5b9060005260206000200181905550505b8360000160008481526020019081526020016000206000905583600101805480611621577f4e487b7100000000000000000000000000000000000000000000000000000000600052603160045260246000fd5b6001900381819060005260206000200160009055905550505050565b611647828261131d565b15611687576040517f08c379a000000000000000000000000000000000000000000000000000000000815260040161167e90611f8f565b60405180910390fd5b816001018054905082600001600083815260200190815260200160002081905550816001018190806001815401808255809150506001900390600052602060002001600090919091909150555050565b60008151905060006a636f6e736f6c652e6c6f679050602083016000808483855afa5050505050565b82805461170c90612183565b90600052602060002090601f01602090048101928261172e5760008555611775565b82601f1061174757805160ff1916838001178555611775565b82800160010185558215611775579182015b82811115611774578251825591602001919060010190611759565b5b50905061178291906117c6565b5090565b50805461179290612183565b6000825580601f106117a457506117c3565b601f0160209004906000526020600020908101906117c291906117c6565b5b50565b5b808211156117df5760008160009055506001016117c7565b5090565b60006117f66117f18461200f565b611fea565b90508281526020810184848401111561180e57600080fd5b611819848285612141565b509392505050565b60008135905061183081612684565b92915050565b6000813590506118458161269b565b92915050565b600082601f83011261185c57600080fd5b813561186c8482602086016117e3565b91505092915050565b600081359050611884816126b2565b92915050565b600080600080608085870312156118a057600080fd5b60006118ae87828801611821565b94505060206118bf87828801611821565b935050604085013567ffffffffffffffff8111156118dc57600080fd5b6118e88782880161184b565b92505060606118f987828801611875565b91505092959194509250565b60006020828403121561191757600080fd5b600061192584828501611836565b91505092915050565b600080600080600060a0868803121561194657600080fd5b600061195488828901611836565b955050602061196588828901611821565b945050604061197688828901611821565b935050606086013567ffffffffffffffff81111561199357600080fd5b61199f8882890161184b565b92505060806119b088828901611875565b9150509295509295909350565b600080604083850312156119d057600080fd5b60006119de85828601611836565b92505060206119ef85828601611875565b9150509250929050565b600060208284031215611a0b57600080fd5b6000611a1984828501611875565b91505092915050565b611a2b816120fb565b82525050565b611a3a8161210d565b82525050565b6000611a4b82612055565b611a558185612060565b9350611a65818560208601612150565b611a6e816122bc565b840191505092915050565b60008154611a8681612183565b611a908186612060565b94506001821660008114611aab5760018114611abd57611af0565b60ff1983168652602086019350611af0565b611ac685612040565b60005b83811015611ae857815481890152600182019150602081019050611ac9565b808801955050505b50505092915050565b6000611b06603083612060565b9150611b11826122cd565b604082019050919050565b6000611b29602883612060565b9150611b348261231c565b604082019050919050565b6000611b4c602583612060565b9150611b578261236b565b604082019050919050565b6000611b6f602a83612060565b9150611b7a826123ba565b604082019050919050565b6000611b92602783612060565b9150611b9d82612409565b604082019050919050565b6000611bb5602e83612060565b9150611bc082612458565b604082019050919050565b6000611bd8602783612060565b9150611be3826124a7565b604082019050919050565b6000611bfb602383612060565b9150611c06826124f6565b604082019050919050565b6000611c1e601483612060565b9150611c2982612545565b602082019050919050565b6000611c41600f83612060565b9150611c4c8261256e565b602082019050919050565b6000611c64602883612060565b9150611c6f82612597565b604082019050919050565b6000611c87602a83612060565b9150611c92826125e6565b604082019050919050565b6000611caa602383612060565b9150611cb582612635565b604082019050919050565b611cc981612137565b82525050565b6000604082019050611ce46000830185611a22565b611cf16020830184611a31565b9392505050565b6000606082019050611d0d6000830186611a22565b611d1a6020830185611a31565b8181036040830152611d2c8184611a79565b9050949350505050565b6000606082019050611d4b6000830186611a22565b611d586020830185611a31565b611d656040830184611cc0565b949350505050565b6000602082019050611d826000830184611a31565b92915050565b600061010082019050611d9e600083018b611a31565b8181036020830152611db0818a611a40565b9050611dbf6040830189611a22565b611dcc6060830188611a22565b611dd96080830187611cc0565b611de660a0830186611a22565b611df360c0830185611cc0565b611e0060e0830184611cc0565b9998505050505050505050565b60006020820190508181036000830152611e278184611a40565b905092915050565b60006020820190508181036000830152611e4881611af9565b9050919050565b60006020820190508181036000830152611e6881611b1c565b9050919050565b60006020820190508181036000830152611e8881611b3f565b9050919050565b60006020820190508181036000830152611ea881611b62565b9050919050565b60006020820190508181036000830152611ec881611b85565b9050919050565b60006020820190508181036000830152611ee881611ba8565b9050919050565b60006020820190508181036000830152611f0881611bcb565b9050919050565b60006020820190508181036000830152611f2881611bee565b9050919050565b60006020820190508181036000830152611f4881611c11565b9050919050565b60006020820190508181036000830152611f6881611c34565b9050919050565b60006020820190508181036000830152611f8881611c57565b9050919050565b60006020820190508181036000830152611fa881611c7a565b9050919050565b60006020820190508181036000830152611fc881611c9d565b9050919050565b6000602082019050611fe46000830184611cc0565b92915050565b6000611ff4612005565b905061200082826121b5565b919050565b6000604051905090565b600067ffffffffffffffff82111561202a5761202961228d565b5b612033826122bc565b9050602081019050919050565b60008190508160005260206000209050919050565b600081519050919050565b600082825260208201905092915050565b600061207c82612137565b915061208783612137565b9250827fffffffffffffffffffffffffffffffffffffffffffffffffffffffffffffffff038211156120bc576120bb61222f565b5b828201905092915050565b60006120d282612137565b91506120dd83612137565b9250828210156120f0576120ef61222f565b5b828203905092915050565b600061210682612117565b9050919050565b6000819050919050565b600073ffffffffffffffffffffffffffffffffffffffff82169050919050565b6000819050919050565b82818337600083830152505050565b60005b8381101561216e578082015181840152602081019050612153565b8381111561217d576000848401525b50505050565b6000600282049050600182168061219b57607f821691505b602082108114156121af576121ae61225e565b5b50919050565b6121be826122bc565b810181811067ffffffffffffffff821117156121dd576121dc61228d565b5b80604052505050565b60006121f182612137565b91507fffffffffffffffffffffffffffffffffffffffffffffffffffffffffffffffff8214156122245761222361222f565b5b600182019050919050565b7f4e487b7100000000000000000000000000000000000000000000000000000000600052601160045260246000fd5b7f4e487b7100000000000000000000000000000000000000000000000000000000600052602260045260246000fd5b7f4e487b7100000000000000000000000000000000000000000000000000000000600052604160045260246000fd5b6000601f19601f8301169050919050565b7f43616e27742064656c657465206120747275737420776974682065746865722c60008201527f2077697468647261772066697273742e00000000000000000000000000000000602082015250565b7f43616e2774207570646174652061207472757374207468617420646f65736e2760008201527f742065786973742e000000000000000000000000000000000000000000000000602082015250565b7f43616e2774206765742061207472757374207468617420646f65736e2774206560008201527f786973742e000000000000000000000000000000000000000000000000000000602082015250565b7f427974657333325365743a206b657920646f6573206e6f74206578697374206960008201527f6e20746865207365742e00000000000000000000000000000000000000000000602082015250565b7f4f6e6c79207468652063726561746f722063616e2064656c657465207468697360008201527f2074727573742e00000000000000000000000000000000000000000000000000602082015250565b7f43616e2774207769746864726177206d6f7265206574686572207468616e206560008201527f786973747320696e207472757374000000000000000000000000000000000000602082015250565b7f4f6e6c79207468652063726561746f722063616e20757064617465207468697360008201527f2074727573742e00000000000000000000000000000000000000000000000000602082015250565b7f4f6e6c792043726561746f7220616e64204f776e65722063616e20776974686460008201527f7261770000000000000000000000000000000000000000000000000000000000602082015250565b7f547275737420646f65736e27742065786973742e000000000000000000000000600082015250565b7f5472757374206e6f7420666f756e640000000000000000000000000000000000600082015250565b7f43616e27742064656c6574652061207472757374207468617420646f65736e2760008201527f742065786973742e000000000000000000000000000000000000000000000000602082015250565b7f427974657333325365743a206b657920616c726561647920657869737473206960008201527f6e20746865207365742e00000000000000000000000000000000000000000000602082015250565b7f43616e6e6f7420776974686472617720756e74696c204d61747572697479206460008201527f6174650000000000000000000000000000000000000000000000000000000000602082015250565b61268d816120fb565b811461269857600080fd5b50565b6126a48161210d565b81146126af57600080fd5b50565b6126bb81612137565b81146126c657600080fd5b5056fe67657454727573744174496e6465782829202d2074727573745365742e636f756e742069732030a26469706673582212209ef9f0c7cdb302a76e6da6629f3fe5ba315a2cc1ccd9ca4cc3cb2f1f95a2552664736f6c63430008040033",
  "devdoc": {
    "kind": "dev",
    "methods": {},
    "version": 1
  },
  "userdoc": {
    "kind": "user",
    "methods": {
      "constructor": {
        "notice": "Constructor function"
      }
    },
    "version": 1
  },
  "storageLayout": {
    "storage": [
      {
        "astId": 8259,
        "contract": "src/contracts/Trusts.sol:Trusts",
        "label": "trustSet",
        "offset": 0,
        "slot": "0",
        "type": "t_struct(Set)8073_storage"
      },
      {
        "astId": 8278,
        "contract": "src/contracts/Trusts.sol:Trusts",
        "label": "nextKey",
        "offset": 0,
        "slot": "2",
        "type": "t_bytes32"
      },
      {
        "astId": 8283,
        "contract": "src/contracts/Trusts.sol:Trusts",
        "label": "trusts",
        "offset": 0,
        "slot": "3",
        "type": "t_mapping(t_bytes32,t_struct(Trust)8276_storage)"
      }
    ],
    "types": {
      "t_address": {
        "encoding": "inplace",
        "label": "address",
        "numberOfBytes": "20"
      },
      "t_array(t_bytes32)dyn_storage": {
        "base": "t_bytes32",
        "encoding": "dynamic_array",
        "label": "bytes32[]",
        "numberOfBytes": "32"
      },
      "t_bytes32": {
        "encoding": "inplace",
        "label": "bytes32",
        "numberOfBytes": "32"
      },
      "t_mapping(t_bytes32,t_struct(Trust)8276_storage)": {
        "encoding": "mapping",
        "key": "t_bytes32",
        "label": "mapping(bytes32 => struct Trusts.Trust)",
        "numberOfBytes": "32",
        "value": "t_struct(Trust)8276_storage"
      },
      "t_mapping(t_bytes32,t_uint256)": {
        "encoding": "mapping",
        "key": "t_bytes32",
        "label": "mapping(bytes32 => uint256)",
        "numberOfBytes": "32",
        "value": "t_uint256"
      },
      "t_string_storage": {
        "encoding": "bytes",
        "label": "string",
        "numberOfBytes": "32"
      },
      "t_struct(Set)8073_storage": {
        "encoding": "inplace",
        "label": "struct Bytes32Set.Set",
        "members": [
          {
            "astId": 8069,
            "contract": "src/contracts/Trusts.sol:Trusts",
            "label": "keyPointers",
            "offset": 0,
            "slot": "0",
            "type": "t_mapping(t_bytes32,t_uint256)"
          },
          {
            "astId": 8072,
            "contract": "src/contracts/Trusts.sol:Trusts",
            "label": "keyList",
            "offset": 0,
            "slot": "1",
            "type": "t_array(t_bytes32)dyn_storage"
          }
        ],
        "numberOfBytes": "64"
      },
      "t_struct(Trust)8276_storage": {
        "encoding": "inplace",
        "label": "struct Trusts.Trust",
        "members": [
          {
            "astId": 8261,
            "contract": "src/contracts/Trusts.sol:Trusts",
            "label": "key",
            "offset": 0,
            "slot": "0",
            "type": "t_bytes32"
          },
          {
            "astId": 8263,
            "contract": "src/contracts/Trusts.sol:Trusts",
            "label": "name",
            "offset": 0,
            "slot": "1",
            "type": "t_string_storage"
          },
          {
            "astId": 8265,
            "contract": "src/contracts/Trusts.sol:Trusts",
            "label": "beneficiary",
            "offset": 0,
            "slot": "2",
            "type": "t_address"
          },
          {
            "astId": 8267,
            "contract": "src/contracts/Trusts.sol:Trusts",
            "label": "trustee",
            "offset": 0,
            "slot": "3",
            "type": "t_address"
          },
          {
            "astId": 8269,
            "contract": "src/contracts/Trusts.sol:Trusts",
            "label": "creator",
            "offset": 0,
            "slot": "4",
            "type": "t_address"
          },
          {
            "astId": 8271,
            "contract": "src/contracts/Trusts.sol:Trusts",
            "label": "etherAmount",
            "offset": 0,
            "slot": "5",
            "type": "t_uint256"
          },
          {
            "astId": 8273,
            "contract": "src/contracts/Trusts.sol:Trusts",
            "label": "createdDate",
            "offset": 0,
            "slot": "6",
            "type": "t_uint256"
          },
          {
            "astId": 8275,
            "contract": "src/contracts/Trusts.sol:Trusts",
            "label": "maturityDate",
            "offset": 0,
            "slot": "7",
            "type": "t_uint256"
          }
        ],
        "numberOfBytes": "256"
      },
      "t_uint256": {
        "encoding": "inplace",
        "label": "uint256",
        "numberOfBytes": "32"
      }
    }
  }
}